:100000000C945F000C9436020C940F020C94870041
:100010000C9487000C9487000C9487000C94B50214
:100020000C9487000C9487000C9487000C940403B4
:100030000C9487000C9487000C945F030C94870049
:100040000C94C5010C9487000C9483020C945D02FF
:100050000C9487000C9487000C9487000C94870004
:100060000C9487000C94870002010000000000241B
:100070000027002A0000000000250028002B0004B3
:10008000040404040404040202020202020303033F
:100090000303030102040810204080010204081039
:1000A00020010204081020000000080002010000E6
:1000B000030407000000000000000000A90C112448
:1000C0001FBECFEFD8E0DEBFCDBF11E0A0E0B1E0B2
:1000D000EAEBFAE102C005900D92A83FB107D9F70B
:1000E00022E0A8EFB1E001C01D92A83FB207E1F7FE
:1000F00010E0CFE5D0E004C02197FE010E94500D32
:10010000CE35D107C9F70E9421090C945B0D0C94E0
:10011000000081E08093040108950895CF92DF925A
:10012000EF92FF920F931F93CF93DF936C017A01AD
:100130008B01C0E0D0E0CE15DF0581F0D8016D91D4
:100140008D01D601ED91FC910190F081E02DC60169
:100150000995892B11F02196EECF7E01C701DF9121
:10016000CF911F910F91FF90EF90DF90CF90089566
:10017000089580E090E00895FC01538D448D252F73
:1001800030E0842F90E0821B930B541710F0CF9631
:10019000089501970895FC01918D828D981761F063
:1001A000828DDF01A80FB11D5D968C91928D9F5FAE
:1001B0009F73928F90E008958FEF9FEF0895FC0159
:1001C000918D828D981731F0828DE80FF11D858D0C
:1001D00090E008958FEF9FEF0895FC01918D228D9F
:1001E000892F90E0805C9F4F821B91098F73992724
:1001F000089581E292E00E94ED0021E0892B09F44C
:1002000020E0822F0895FC01848DDF01A80FB11D2D
:10021000A35ABF4F2C91848D90E001968F7399273C
:10022000848FA689B7892C93A089B1898C9183701A
:1002300080648C93938D848D981306C00288F38913
:10024000E02D80818F7D80830895EF92FF920F9340
:100250001F93CF93DF93EC0181E0888F9B8D8C8D72
:10026000981305C0E889F989808185FD26C0F62E9E
:100270000B8D10E00F5F1F4F0F731127E02E8C8D39
:10028000E8120CC00FB607FCFACFE889F989808123
:1002900085FFF5CFCE010E940301F1CF8B8DFE01CA
:1002A000E80FF11DE35AFF4FF0829FB7F8940B8FD0
:1002B000EA89FB89808180620AC09FB7F894EE8941
:1002C000FF896083E889F9898081837080648083F5
:1002D0009FBF81E090E0DF91CF911F910F91FF9040
:1002E000EF900895CF93DF93EC01888D8823C9F0B8
:1002F000EA89FB89808185FD05C0A889B9898C912F
:1003000086FD0FC00FB607FCF5CF808185FFF2CFC9
:10031000A889B9898C9185FFEDCFCE010E94030198
:10032000E7CFDF91CF91089580E090E0892B29F00D
:100330000E94F90081110C94000008950E94560D4E
:100340003FB7F8948091080290910902A0910A02A7
:10035000B0910B0226B5A89B05C02F3F19F001965E
:10036000A11DB11D3FBFBA2FA92F982F8827820F3B
:10037000911DA11DB11DBC01CD0142E0660F771F8B
:10038000881F991F4A95D1F708951F920F920FB6B3
:100390000F9211242F933F938F939F93AF93BF930B
:1003A0008091100290911102A0911202B09113025B
:1003B0003091070223E0230F2D3720F40196A11D71
:1003C000B11D05C026E8230F0296A11DB11D209383
:1003D00007028093100290931102A0931202B0932F
:1003E00013028091080290910902A0910A02B09133
:1003F0000B020196A11DB11D809308029093090282
:10040000A0930A02B0930B02BF91AF919F918F917D
:100410003F912F910F900FBE0F901F9018951F9234
:100420000F920FB60F9211242F933F934F935F9328
:100430006F937F938F939F93AF93BF93EF93FF93AC
:10044000E0910201F09103010995FF91EF91BF91B5
:10045000AF919F918F917F916F915F914F913F915C
:100460002F910F900FBE0F901F9018951F920F9213
:100470000FB60F9211242F933F934F935F936F9377
:100480007F938F939F93AF93BF93EF93FF93E091ED
:100490000001F09101010995FF91EF91BF91AF919A
:1004A0009F918F917F916F915F914F913F912F918C
:1004B0000F900FBE0F901F9018951F920F920FB6BE
:1004C0000F9211242F933F934F935F936F937F93DA
:1004D0008F939F93AF93BF93EF93FF9381E292E04B
:1004E0000E940301FF91EF91BF91AF919F918F9176
:1004F0007F916F915F914F913F912F910F900FBE20
:100500000F901F9018951F920F920FB60F92112403
:100510002F938F939F93EF93FF93E0913102F0918C
:1005200032028081E0913702F091380282FD12C0E0
:10053000908180913A028F5F8F7320913B028217E6
:1005400051F0E0913A02F0E0EF5DFD4F958F80931E
:100550003A0201C08081FF91EF919F918F912F917D
:100560000F900FBE0F901F9018951F920F920FB60D
:100570000F9211242F933F938F939F93AF93BF9329
:10058000EF93FF938091150290911602A0911702AC
:10059000B09118020097A105B10591F03091F901D1
:1005A000E091FA01F091FB012081232720831816A6
:1005B00019061A061B069CF40197A109B1090FC080
:1005C000209170002D7F209370002091F901E0911F
:1005D000FA01F091FB013081209523232083809341
:1005E000150290931602A0931702B0931802FF9180
:1005F000EF91BF91AF919F918F913F912F910F906C
:100600000FBE0F901F9018951F920F920FB60F926A
:1006100011248F939F93AF93BF93EF93FF93809198
:10062000190290911A02A0911B02B0911C02892B11
:100630008A2B8B2B51F19091FC01E091FD01F091FF
:10064000FE018081892780838091190290911A028E
:10065000A0911B02B0911C02181619061A061B065F
:100660001CF58091190290911A02A0911B02B09181
:100670001C020197A109B1098093190290931A02F3
:10068000A0931B02B0931C020FC080916F008D7F5E
:1006900080936F008091FC01E091FD01F091FE01DB
:1006A0009081809589238083FF91EF91BF91AF91D5
:1006B0009F918F910F900FBE0F901F9018951F92D2
:1006C0000F920FB60F9211248F939F93AF93BF9306
:1006D000EF93FF9380911D0290911E02A0911F0243
:1006E000B0912002892B8A2B8B2B51F19091FF0125
:1006F000E0910002F091010280818927808380913E
:100700001D0290911E02A0911F02B09120021816A6
:1007100019061A061B061CF580911D0290911E02F7
:10072000A0911F02B09120020197A109B109809305
:100730001D0290931E02A0931F02B09320020FC0CF
:1007400080916E008D7F80936E008091FF01E0911B
:100750000002F09101029081809589238083FF91AE
:10076000EF91BF91AF919F918F910F900FBE0F901E
:100770001F901895FC01258136812150310936835F
:100780002583232B21F461E080810C949906089540
:10079000FC01258136812F5F3F4F36832583213031
:1007A000310581F48CB58F7D8CBD8CB5837F8CBD7C
:1007B0008CB583608CBD8DB58E7F8DBD60E08081F2
:1007C0000C949906089561E0FC0180810C949906CF
:1007D0008EBD00000DB407FEFDCF8EB50895AF921B
:1007E000BF92CF92DF92EF92FF920F931F93CF931E
:1007F000DF938C01C62FB42E0E94C803F8018181BB
:100800009281019711F4C295C07FC8010E94C8036C
:100810008FE40E94E803D82FF82FF270AF2E81FFEB
:1008200008C08FEF0E94E803D170DD2EC12C760145
:10083000E82AC8010E94BA03AA2081F0BB2011F067
:10084000CE2902C0C095CE214C2F50E0516064E00B
:1008500070E0C8010E941605C82F01C0C0E0C801A1
:100860000E94BA038C2FDF91CF911F910F91FF90BF
:10087000EF90DF90CF90BF90AF900895CF93CFB718
:10088000F8948091F801811127C0E9E8F0E08491A3
:10089000EDE9F0E09491E82FF0E0EE0FFF1FE5594D
:1008A000FF4FA591B491EC91E92321F461E08AE036
:1008B0000E94990661E08AE00E9446088CB580613A
:1008C0008CBD8CB580648CBD61E08DE00E944608D3
:1008D00061E08BE00E9446088091F8018F5F809371
:1008E000F801CFBFCF910895009769F0FC01019006
:1008F0000020E9F73197AF01481B590BBC0181E299
:1009000092E00C948E0080E090E008950C947404C2
:100910008F929F92AF92BF920F931F93CF93DF93CB
:10092000CDB7DEB7A1970FB6F894DEBF0FBECDBF2F
:1009300019A2423008F44AE08E010F5D1F4F842E49
:10094000912CA12CB12CA50194010E941F0DE62F22
:10095000B901CA0101501109EA3014F4E05D01C087
:10096000E95CD801EC93232B242B252B61F7C801DC
:100970000E947404A1960FB6F894DEBF0FBECDBFDF
:10098000DF91CF911F910F91BF90AF909F908F906B
:100990000895CF92DF92EF92FF92CF93DF936C0195
:1009A000990FEE08FF08F7FE13C06DE281E292E0B6
:1009B0000E942501EC0166277727CB016C197D0980
:1009C0008E099F094AE00E948804C80FD91F06C0FB
:1009D0004AE0C701B6010E948804EC0188E991E071
:1009E0000E9474048C0F9D1FDF91CF91FF90EF90B8
:1009F000DF90CF900895CF93DF93AB01682F41151F
:100A0000510529F481E292E00E94250105C070E0C1
:100A100080E090E00E948804EC0188E991E00E9467
:100A200074048C0F9D1FDF91CF910895EF92FF9278
:100A30000F931F93CF93DF937C018B01EA010E94F8
:100A4000C80384E0000F111F8A95E1F70260D1709E
:100A5000D02B8D2F0E94E80311E081FD02C010E031
:100A600003C08C2F0E94E803C7010E94BA03812FA4
:100A7000DF91CF911F910F91FF90EF900895CF9349
:100A8000DF930E947404EC0188E991E00E947404F1
:100A90008C0F9D1FDF91CF910895CF93DF938091AD
:100AA000C8029091C902A091CA02B091CB02BF7155
:100AB0008093C8029093C902A093CA02B093CB025C
:100AC000823424E0920720EEA207B10509F458C051
:100AD00070F4863620E49207A207B10509F4CDC070
:100AE000883F9F47A146B10509F49DC0EFC08E32F3
:100AF00022E5920720EEA20721E0B20709F479C0AF
:100B000088329043A105B34009F0E0C08091D20241
:100B1000877090E0209105013091060182179307BC
:100B200071F090930601809305018BE991E00E949A
:100B3000860480910501909106010E94C90480916C
:100B4000D202807790E025E0959587952A95E1F788
:100B500020910701309108018217930709F4B6C06C
:100B6000909308018093070181EA91E00E94860436
:100B70008091070190910801DF91CF910C94C904F5
:100B80008091D202C1E0982F907486FFC0E08091DE
:100B90000A01C817D9F0C0930A01992331F0909146
:100BA000090181E089278093090188EA91E00E9488
:100BB00086048C2F90E00E94C90484EB91E00E948F
:100BC00086048091090190E00E94C9048091D302BB
:100BD0008F7090910B01891709F478C080930B01F5
:100BE0008EEB91E00E9486046AE070E080910B0138
:100BF00016C09091D3029695969596958FE1891B94
:100C000090910E01891709F461C080930E018AEC5E
:100C100091E00E9486046AE070E080910E01DF910D
:100C2000CF910C94FB04C091D602D0E085E0D5951D
:100C3000C7958A95E1F781E0C2FF80E090910C01B1
:100C4000891759F080930C0184ED91E00E9486048D
:100C500080910C0190E00E94C904C37080910D0145
:100C6000C817A1F1C0930D0189ED91E00E9486049F
:100C70006AE070E080910D01D2CF2091D6022F73EF
:100C80008091D70290E0809590958F739927922B51
:100C900020910F013091100182179307B9F09093C2
:100CA000100180930F0182EE91E00E948604609112
:100CB0000F017091100180E090E040E10E948804F3
:100CC00088E991E0DF91CF910C947404DF91CF918A
:100CD0000895CF93DF938BEE91E00E948604C8EED7
:100CE000D2E06D8570E080E090E04AE00E948804E8
:100CF0002D8530E0A0EDB7E00E94410D2FE130E0FE
:100D000040E050E00E941F0D29873A874B875C879F
:100D100082EF91E00E94860469857A858B859C85A7
:100D20004AE00E94880488E991E0DF91CF910C9419
:100D3000740490E0FC01E955FF4F2491FC01ED564D
:100D4000FF4F3491FC01E158FF4FE491EE2309F489
:100D50003CC0222339F1233091F038F42130A9F03E
:100D6000223001F584B58F7D12C0273091F02830F4
:100D7000A1F02430B9F4809180008F7D03C0809170
:100D800080008F77809380000DC084B58F7784BDFD
:100D900009C08091B0008F7703C08091B0008F7D33
:100DA0008093B000F0E0EE0FFF1FEB58FF4FA591CE
:100DB000B4919FB7F894611104C08C913095382399
:100DC00002C0EC913E2B3C939FBF089580E58CBD03
:100DD00081E08DBD60E08091C0020C949906CF93B4
:100DE000C82F0E94E60683E00E94E8038C2F0E9431
:100DF000E80380E00E94E803C82F80EC92E00E94A4
:100E0000E3038C2FCF9108951F93CF93DF93182F77
:100E1000D62FC42F0E94E60685E00E94E803812FAA
:100E20000E94E8038D2F0E94E8038C2F0E94E803A4
:100E300080EC92E0DF91CF911F910C94E303CF926D
:100E4000DF92EF92FF92CF93C82F482F60EE8FE092
:100E50000E9404078FB7F894C0901002D09011023E
:100E6000E0901202F09013028FBF8AE0C80ED11CEE
:100E7000E11CF11C2FB7F89480911002909111029F
:100E8000A0911202B09113022FBF8C159D05AE05E3
:100E9000BF0540F48EE00E94EF06807EC813EACFC3
:100EA00091E001C090E081E0892790E0CF91FF9030
:100EB000EF90DF90CF900895CF93DF93D82FC62F78
:100EC0000E94E60682E00E94E8038D2F0E94E8035C
:100ED0008C2F0E94E80380EC92E0DF91CF910C947C
:100EE000E3030F931F93CF93DF93C82F8B010E94CF
:100EF000E60682E00E94E8038C2F0E94E803E801E6
:100F0000025F1F4F89910E94E803C017D107D1F7F4
:100F100080EC92E0DF91CF911F910F910C94E3034D
:100F2000FF920F931F93CF93DF93C82FF62E072FB7
:100F3000142F0E94E60683E00E94E8038C2F0E9493
:100F4000E803CF2DD02FCE01810F911D8C01C0174A
:100F5000D10729F080E00E94E8038993F8CF80EC64
:100F600092E0DF91CF911F910F91FF900C94E303DA
:100F7000BF92CF92DF92EF92FF920F931F93CF9386
:100F8000DF9300D000D01F92CDB7DEB78C01000FE9
:100F9000111F000F111FF801E95EFE4F45E0BE0171
:100FA0006F5F7F4F81810E9490078A819981C82E4F
:100FB000D12C55E0D594C7945A95E1F728E0929F3B
:100FC000C00CD11C11240D2C000CEE08FF0883FF6F
:100FD00020C092E0CC0CDD1CEE1CFF1C9A95D1F7D2
:100FE0008370C80ED11CE11CF11CFE2CED2CDC2CF6
:100FF000CC248B81C80ED11CE11CF11CFE2CED2CE5
:10100000DC2CCC248C81C80ED11CE11CF11C689412
:10101000F7F88D818F70B82E88E08B1530F1F801CC
:10102000E95EFE4F80810E94EF0683FF02C0689454
:10103000F6F8C092C802D092C902E092CA02F092B9
:10104000CB02B092CC02095E1E4F4B2D60ED72E0D8
:10105000F80182810E94900740E0F80163818CE2F0
:101060000E94040780E090E002C081E090E00F90D1
:101070000F900F900F900F90DF91CF911F910F91D4
:10108000FF90EF90DF90CF90BF900895CF93DF93C4
:1010900090E0FC01ED56FF4F2491FC01E158FF4F19
:1010A0008491882361F190E0880F991FFC01E55934
:1010B000FF4FC591D491FC01EB58FF4FA591B4911E
:1010C000611109C09FB7F894888120958223888395
:1010D000EC912E230BC0623061F49FB7F8948881A5
:1010E000322F309583238883EC912E2B2C939FBF36
:1010F00006C08FB7F894E8812E2B28838FBFDF912D
:10110000CF91089561E08091E8020E9446088091A5
:10111000E902882351F0823071F48091B100887F18
:1011200083608093B1009CEF3EC085B5887F83606B
:1011300085BD9DE725C08130F1F480918100887FD5
:1011400081608093810080EA9FE190938900809381
:10115000880085E991E0A0E0B0E0809319029093C7
:101160001A02A0931B02B0931C0280916F00826050
:1011700080936F00089590EA8230A9F0811126C013
:1011800097BD85E991E0A0E0B0E080931D029093C7
:101190001E02A0931F02B093200280916E00826015
:1011A00080936E0008959093B30085E991E0A0E0EC
:1011B000B0E08093150290931602A0931702B093AB
:1011C00018028091700082608093700008958F9261
:1011D0009F92AF92BF92CF92DF92EF92FF926B01FC
:1011E0007C010E94A0014B015C01C114D104E10407
:1011F000F104F1F00E94A001DC01CB0188199909EA
:10120000AA09BB09883E9340A105B10570F321E00E
:10121000C21AD108E108F10888EE880E83E0981E12
:10122000A11CB11CC114D104E104F10419F7DDCFF4
:10123000FF90EF90DF90CF90BF90AF909F908F90F6
:101240000895CF93DF93CDB7DEB72E970FB6F894FE
:10125000DEBF0FBECDBF789484B5826084BD84B5F7
:10126000816084BD85B5826085BD85B5816085BDA1
:1012700080916E00816080936E0010928100809159
:1012800081008260809381008091810081608093E1
:101290008100809180008160809380008091B10006
:1012A00084608093B1008091B00081608093B00031
:1012B00080917A00846080937A0080917A008260C5
:1012C00080937A0080917A00816080937A00809187
:1012D0007A00806880937A001092C100E091310218
:1012E000F091320282E08083E0912D02F0912E0293
:1012F0001082E0912F02F091300280E18083109201
:101300003902E0913502F091360286E08083E09167
:101310003302F0913402808180618083E091330256
:10132000F0913402808188608083E0913302F091F3
:101330003402808180688083E0913302F09134022E
:1013400080818F7D808382E391E00E943F050E942F
:101350003E0462E08091C1020E94460889E890E064
:101360009093010180930001809169008C7F8260DD
:1013700080936900E89A0E94E60680EC0E94E803E8
:1013800080EC92E00E94E3036AE070E080E090E08D
:101390000E94E7088E010F5F1F4F8EE0F801119247
:1013A0008A95E9F7B80180E30E947107B80180E4EB
:1013B0000E947107B80180E50E94710760E080E635
:1013C0000E945C0760E080E70E945C0763EA8BE2B2
:1013D0000E945C0744E064E680E60E94040740E067
:1013E00060E680E70E94040780E80E941F07892BBF
:1013F00029F088E391E00E943F0511C061E08AE294
:101400000E945C0761EB89E20E945C0765E888E264
:101410000E945C0780E60E941F07892B51F741E07C
:1014200064E088ED92E00E94EF03882309F48CC207
:1014300041E064E08FED92E00E94EF03882309F41D
:1014400083C240E062E088ED92E00E94EF038823CF
:1014500009F47AC240E062E08FED92E00E94EF036F
:10146000882309F471C280910202833008F083C09E
:1014700093E09093E802E82FF0E0E859FF4FE49101
:10148000E093E9028F5F80930202E13009F44CC0DF
:1014900050F1E23009F072C01092B0001092B10029
:1014A0008091B00082608093B0008091B100816033
:1014B0008093B1008091E80290E0FC01E158FF4F79
:1014C000E491F0E0EE0FFF1FEB58FF4F25913491B0
:1014D0003093FB012093FA01FC01ED56FF4FE4919C
:1014E000E093F9014BC014BC15BC84B5826084BD87
:1014F00085B5816085BD8091E80290E0FC01E158EE
:10150000FF4FE491F0E0EE0FFF1FEB58FF4F2591E6
:1015100034913093010220930002FC01ED56FF4FFD
:10152000E491E093FF012AC01092800010928100A4
:10153000809181008860809381008091810081602A
:10154000809381008091E80290E0FC01E158FF4F18
:10155000E491F0E0EE0FFF1FEB58FF4F259134911F
:101560003093FE012093FD01FC01ED56FF4FE49105
:10157000E093FC0103C08FEF8093E90261E085E016
:101580000E94460861E084E00E94460861E086E02F
:101590000E94460861E085E00E94990660E084E0D0
:1015A0000E94990660E086E00E9499066AEF70E06A
:1015B00080E090E00E94E70888E491E00E943F0507
:1015C00032E0A32EB12C8FB7F894409010025090C7
:1015D000110260901202709013028FBF809104017B
:1015E000882309F443C0109204018CE20E94EF06A4
:1015F000182F8823D9F185FF19C08DE20E94EF06CC
:10160000082F40E060EC8DE20E94040740E060E2B9
:101610008CE20E94040706FF09C08CE491E00E945E
:10162000860460E170E0802F0E94FB0417FF09C070
:1016300040E060E88CE20E94040787E591E00E94A8
:101640003F0510FF08C080E090E00E94B807892B9A
:1016500011F40E944D0511FFC8CF81E090E00E9477
:10166000B807892B11F60E944D05BFCF10910E01CE
:101670008091050190910601029719F4809109016A
:1016800001C080E09091EC02882321F081E01F31BD
:1016900008F080E08093EC020091F5021093F502CF
:1016A000981721F1811122C01092EB021092EA02E8
:1016B0008091E902813051F0823071F0811111C0C6
:1016C00080916E008D7F80936E000BC080916F00C3
:1016D0008D7F80936F0005C0809170008D7F809317
:1016E000700060E08091E8020E9499068091EC020F
:1016F000882309F451C08091EA029091EB0200978F
:10170000A9F481E090E09093EB028093EA0240928A
:10171000ED025092EE026092EF027092F002809120
:10172000E90287FD39C00E94820836C04091ED026F
:101730005091EE026091EF027091F002730162012C
:10174000C41AD50AE60AF70A0197A9F4F9ECCF16EC
:10175000D104E104F10400F10E946906B092EB02A9
:10176000A092EA024092ED025092EE026092EF02E5
:101770007092F00211C010130E9469068091F1026C
:101780009091F202A091F302B091F4028C159D05A4
:10179000AE05BF0508F4B5CFE0900F01F090100141
:1017A0008091E6029091E7028E159F0509F46CC0C6
:1017B000F092E702E092E602E114F10409F454C069
:1017C00010E0E0FE4AC0E12FE770E63008F045C0C7
:1017D000012F06950695069529F02FEDC22E22E0E1
:1017E000D22E04C098EDC92E92E0D92EF0E0EF5E23
:1017F000FE4F9080892D90E0F6014381548184173B
:10180000950708F4AC01F60161817281C6010E945E
:10181000160541E062E0C6010E94EF0381E691E017
:101820000E948604602F70E080E090E04AE00E9411
:10183000880488E691E00E948604692D70E080E0CB
:1018400090E04AE00E94880480E791E00E948604CC
:101850006AE070E0812F0E94FB04F694E7941F5F1A
:10186000103109F0AECF10C040E062E088ED92E0A8
:101870000E94EF0340E062E08FED92E00E94EF03F0
:1018800089E791E00E943F0510910D0100910B0145
:10189000209105013091060181E02230310509F0E7
:1018A00080E090910402891759F08093040222305D
:1018B000310511F460E001C061E085E00E94990605
:1018C00081E00A3008F080E090910502891751F01C
:1018D000809305020A3010F460E001C061E084E00A
:1018E0000E9499068FEF810F91E0823008F090E01E
:1018F00020910602921751F090930602823010F464
:1019000061E001C060E086E00E94990680910302D8
:10191000882361F0F9EC4F1651046104710430F032
:101920001092100110920F011092030281E292E0D6
:101930000E94ED00892B29F081E292E00E94CB0009
:10194000F5CF0E9494013FCE84E891E00E943F05CC
:101950008ACDFF920F931F93CF93DF93E1E2F2E0E2
:101960001382128288EE93E0A0E0B0E08483958336
:10197000A683B78384E291E09183808385EC90E035
:101980009587848784EC90E09787868780EC90E049
:10199000918B808B81EC90E0938B828B82EC90E03A
:1019A000958B848B86EC90E0978B868B118E128EB4
:1019B000138E148EE8EEF2E0138212821482C8EDC8
:1019C000D2E087E0F82EF8821A82198200E810E04F
:1019D0001C830B831E821D820E943E0461E088816D
:1019E0000E94460861E088810E949906FF8281E09A
:1019F00090E0998788871B870A871D861C860E942E
:101A00003E0461E08F810E94460861E08F810E9460
:101A100099061F861E860E943E04C0ECD2E08AE032
:101A2000888361E00E944608CE010E94E30382E0C1
:101A30008983DF91CF911F910F91FF900895A1E2CB
:101A40001A2EAA1BBB1BFD010DC0AA1FBB1FEE1F38
:101A5000FF1FA217B307E407F50720F0A21BB30B83
:101A6000E40BF50B661F771F881F991F1A9469F7FF
:101A700060957095809590959B01AC01BD01CF015B
:101A80000895A29FB001B39FC001A39F700D811D57
:101A90001124911DB29F700D811D1124911D089577
:101AA000EE0FFF1F0590F491E02D099481E090E086
:0A1AB000F8940C945B0DF894FFCF3E
:101ABA008D008D00010000000001000000001F00E1
:101ACA00000A283C50647F606166017071760200EA
:101ADA000000000025018E00BC007201ED00CB0061
:101AEA00DF00736574757000566F6C766F43616EB4
:101AFA00206661696C656400656E640043616E20EE
:101B0A004552524946200043616E204D4552524685
:101B1A0000776970657220002076616C7565200017
:101B2A0020627574746F6E20007769706572732015
:101B3A006F666600576865656C427574746F6E737C
:101B4A00206661696C6564000D0A00476561722050
:101B5A0000476561723220005061726B427574747D
:101B6A006F6E200020656E61626C656420004C69AE
:101B7A006768744D65746572200044697374616E98
:101B8A00636520004B657920004B657920706F737F
:101B9A002000427574746F6E732000646973742038
:081BAA003D002073696C3D0051
:00000001FF
